{
  "address": "0x3421C9eeCC859C2D18348d614a663c2C4153EB8d",
  "abi": [
    {
      "inputs": [],
      "name": "Client__NotAuthorized",
      "type": "error"
    },
    {
      "inputs": [],
      "name": "Client__NotInMempool",
      "type": "error"
    },
    {
      "anonymous": false,
      "inputs": [
        {
          "indexed": false,
          "internalType": "address",
          "name": "sender",
          "type": "address"
        },
        {
          "indexed": false,
          "internalType": "uint256",
          "name": "amount",
          "type": "uint256"
        }
      ],
      "name": "EtherReceivedEvent",
      "type": "event"
    },
    {
      "anonymous": false,
      "inputs": [
        {
          "indexed": false,
          "internalType": "uint256",
          "name": "offChainData",
          "type": "uint256"
        },
        {
          "indexed": false,
          "internalType": "uint256",
          "name": "id",
          "type": "uint256"
        }
      ],
      "name": "OffChainDataUpdatedEvent",
      "type": "event"
    },
    {
      "anonymous": false,
      "inputs": [
        {
          "indexed": true,
          "internalType": "address",
          "name": "previousOwner",
          "type": "address"
        },
        {
          "indexed": true,
          "internalType": "address",
          "name": "newOwner",
          "type": "address"
        }
      ],
      "name": "OwnershipTransferred",
      "type": "event"
    },
    {
      "anonymous": false,
      "inputs": [
        {
          "indexed": false,
          "internalType": "uint256",
          "name": "id",
          "type": "uint256"
        }
      ],
      "name": "ReceivedNewRequestIdEvent",
      "type": "event"
    },
    {
      "anonymous": false,
      "inputs": [
        {
          "indexed": false,
          "internalType": "address",
          "name": "oracleAddress",
          "type": "address"
        }
      ],
      "name": "newOracleAddressEvent",
      "type": "event"
    },
    {
      "stateMutability": "payable",
      "type": "fallback"
    },
    {
      "inputs": [
        {
          "internalType": "uint256",
          "name": "_offChainData",
          "type": "uint256"
        },
        {
          "internalType": "uint256",
          "name": "_id",
          "type": "uint256"
        }
      ],
      "name": "callback",
      "outputs": [],
      "stateMutability": "nonpayable",
      "type": "function"
    },
    {
      "inputs": [],
      "name": "owner",
      "outputs": [
        {
          "internalType": "address",
          "name": "",
          "type": "address"
        }
      ],
      "stateMutability": "view",
      "type": "function"
    },
    {
      "inputs": [],
      "name": "renounceOwnership",
      "outputs": [],
      "stateMutability": "nonpayable",
      "type": "function"
    },
    {
      "inputs": [
        {
          "internalType": "address",
          "name": "_oracleInstanceAddress",
          "type": "address"
        }
      ],
      "name": "setOracleInstanceAddress",
      "outputs": [],
      "stateMutability": "nonpayable",
      "type": "function"
    },
    {
      "inputs": [
        {
          "internalType": "address",
          "name": "newOwner",
          "type": "address"
        }
      ],
      "name": "transferOwnership",
      "outputs": [],
      "stateMutability": "nonpayable",
      "type": "function"
    },
    {
      "inputs": [],
      "name": "updateOffChainData",
      "outputs": [],
      "stateMutability": "nonpayable",
      "type": "function"
    },
    {
      "stateMutability": "payable",
      "type": "receive"
    }
  ],
  "transactionHash": "0x90776ec4330352b99d3eb7b8339b5850375d523d4e0905a7705c17c3e629cda5",
  "args": [],
  "numDeployments": 1,
  "solcInputHash": "6608a17313f90a6d3aae831bb5599186",
  "bytecode": "0x608060405234801561001057600080fd5b5061001a3361001f565b61006f565b600080546001600160a01b038381166001600160a01b0319831681178455604051919092169283917f8be0079c531659141344cd1fd0a4f28419497f9722a3daafe3b4186f6b6457e09190a35050565b6105cc8061007e6000396000f3fe6080604052600436106100695760003560e01c8063b5d73ba411610043578063b5d73ba414610136578063e9e17a9e14610156578063f2fde38b14610176576100a9565b8063715018a6146100de57806383f87524146100f55780638da5cb5b1461010a576100a9565b366100a957604080513381523460208201527fc0cdab6ced19ce3372efda53aec6b0802e63718e5aa5b77807792330f5b5aab991015b60405180910390a1005b604080513381523460208201527fc0cdab6ced19ce3372efda53aec6b0802e63718e5aa5b77807792330f5b5aab9910161009f565b3480156100ea57600080fd5b506100f3610196565b005b34801561010157600080fd5b506100f36101aa565b34801561011657600080fd5b50600054604080516001600160a01b039092168252519081900360200190f35b34801561014257600080fd5b506100f361015136600461052b565b61028b565b34801561016257600080fd5b506100f361017136600461054d565b610370565b34801561018257600080fd5b506100f361019136600461054d565b6103df565b61019e610474565b6101a860006104ce565b565b600254604080517fb34c55f400000000000000000000000000000000000000000000000000000000815290516000926001600160a01b03169163b34c55f4916004808301926020929190829003018187875af115801561020e573d6000803e3d6000fd5b505050506040513d601f19601f82011682018060405250810190610232919061057d565b60008181526004602052604090819020805460ff19166001179055519091507f3ed150819af981e387450beb90ec379b8b322150dbb299d492b108c59a623e4b906102809083815260200190565b60405180910390a150565b6003546001600160a01b031633146102cf576040517fa885690200000000000000000000000000000000000000000000000000000000815260040160405180910390fd5b60008181526004602052604090205460ff16610317576040517fcce1652700000000000000000000000000000000000000000000000000000000815260040160405180910390fd5b6001829055600081815260046020908152604091829020805460ff1916905581518481529081018390527ffe5f1c3744bbb93387823f3e2892e167f0b4d7fe0bce5955d6b5f2599f42d27c910160405180910390a15050565b610378610474565b600380546001600160a01b03831673ffffffffffffffffffffffffffffffffffffffff19918216811790925560028054909116821790556040519081527f441e3b056b114797955165bd03bb8393fc1658a713f09225de4745a8d068bf7d90602001610280565b6103e7610474565b6001600160a01b0381166104685760405162461bcd60e51b815260206004820152602660248201527f4f776e61626c653a206e6577206f776e657220697320746865207a65726f206160448201527f646472657373000000000000000000000000000000000000000000000000000060648201526084015b60405180910390fd5b610471816104ce565b50565b6000546001600160a01b031633146101a85760405162461bcd60e51b815260206004820181905260248201527f4f776e61626c653a2063616c6c6572206973206e6f7420746865206f776e6572604482015260640161045f565b600080546001600160a01b0383811673ffffffffffffffffffffffffffffffffffffffff19831681178455604051919092169283917f8be0079c531659141344cd1fd0a4f28419497f9722a3daafe3b4186f6b6457e09190a35050565b6000806040838503121561053e57600080fd5b50508035926020909101359150565b60006020828403121561055f57600080fd5b81356001600160a01b038116811461057657600080fd5b9392505050565b60006020828403121561058f57600080fd5b505191905056fea26469706673582212201e59ac0d595197b86e38cc8b3f518c8e09d221072e29458cbb66954ab1a16bee64736f6c63430008130033",
  "devdoc": {
    "author": "vidhan.mangla@mqube.com",
    "details": "will add later if necessary",
    "kind": "dev",
    "methods": {
      "owner()": {
        "details": "Returns the address of the current owner."
      },
      "renounceOwnership()": {
        "details": "Leaves the contract without owner. It will not be possible to call `onlyOwner` functions anymore. Can only be called by the current owner. NOTE: Renouncing ownership will leave the contract without an owner, thereby removing any functionality that is only available to the owner."
      },
      "transferOwnership(address)": {
        "details": "Transfers ownership of the contract to a new account (`newOwner`). Can only be called by the current owner."
      }
    },
    "title": "client contract",
    "version": 1
  },
  "userdoc": {
    "kind": "user",
    "methods": {
      "callback(uint256,uint256)": {
        "notice": "updates the offChainData received"
      },
      "setOracleInstanceAddress(address)": {
        "notice": "set the address of an oracle instance"
      },
      "updateOffChainData()": {
        "notice": "receives the request id from the oracle"
      }
    },
    "notice": "this contract uses the oracle interface to interact and pull decentralized data from the oracle",
    "version": 1
  },
  "storageLayout": {
    "storage": [
      {
        "astId": 195,
        "contract": "contracts/Client.sol:Client",
        "label": "_owner",
        "offset": 0,
        "slot": "0",
        "type": "t_address"
      },
      {
        "astId": 12,
        "contract": "contracts/Client.sol:Client",
        "label": "offChainData",
        "offset": 0,
        "slot": "1",
        "type": "t_uint256"
      },
      {
        "astId": 15,
        "contract": "contracts/Client.sol:Client",
        "label": "oracleInstance",
        "offset": 0,
        "slot": "2",
        "type": "t_contract(OracleInterface)187"
      },
      {
        "astId": 17,
        "contract": "contracts/Client.sol:Client",
        "label": "oracleAddress",
        "offset": 0,
        "slot": "3",
        "type": "t_address"
      },
      {
        "astId": 21,
        "contract": "contracts/Client.sol:Client",
        "label": "myRequests",
        "offset": 0,
        "slot": "4",
        "type": "t_mapping(t_uint256,t_bool)"
      }
    ],
    "types": {
      "t_address": {
        "encoding": "inplace",
        "label": "address",
        "numberOfBytes": "20"
      },
      "t_bool": {
        "encoding": "inplace",
        "label": "bool",
        "numberOfBytes": "1"
      },
      "t_contract(OracleInterface)187": {
        "encoding": "inplace",
        "label": "contract OracleInterface",
        "numberOfBytes": "20"
      },
      "t_mapping(t_uint256,t_bool)": {
        "encoding": "mapping",
        "key": "t_uint256",
        "label": "mapping(uint256 => bool)",
        "numberOfBytes": "32",
        "value": "t_bool"
      },
      "t_uint256": {
        "encoding": "inplace",
        "label": "uint256",
        "numberOfBytes": "32"
      }
    }
  }
}